:020000040800F2
:10000000500C002029020008C3400008B529000850
:10001000C140000839070008F14600080000000050
:100020000000000000000000000000005542000831
:100030006908000800000000F1410008574200086C
:10004000430200084302000843020008430200087C
:10005000430200084302000843020008430200086C
:100060004302000843020008430200089507000805
:1000700043020008A10700084302000843020008E9
:1000800043020008AD0700084302000843020008CD
:10009000430200084302000843020008430200082C
:1000A000430200084302000843020008430200081C
:1000B000430200084302000843020008C529000863
:1000C000B9290008DD290008D129000843020008E9
:1000D00043020008430200084302000843020008EC
:1000E00043020008430200084302000843020008DC
:1000F000430200084302000843020008B907000851
:1001000043020008430200080543000843020008B8
:1001100043020008430200084302000843020008AB
:10012000430200084302000843020008430200089B
:10013000430200084302000843020008430200088B
:10014000430200084302000843020008430200087B
:10015000430200084302000843020008430200086B
:10016000430200084302000843020008430200085B
:100170004302000843020008430200080000000098
:10018000430200084302000800F002F800F03CF8C7
:100190000AA090E8000C82448344AAF10107DA45E2
:1001A00001D100F031F8AFF2090EBAE80F0013F0F8
:1001B000010F18BFFB1A43F001031847E466000063
:1001C00004670000103A24BF78C878C1FAD85207F3
:1001D00024BF30C830C144BF04680C6070470000C1
:1001E0000023002400250026103A28BF78C1FBD840
:1001F000520728BF30C148BF0B6070471FB506F0DB
:10020000A4FA1FBD10B510BD00F014F91146FFF798
:10021000F5FF05F0DDF900F032F903B4FFF7F2FF66
:1002200003BC00F035F90000094880470948004741
:10023000FEE7FEE7FEE7FEE7FEE7FEE7FEE7FEE796
:10024000FEE7FEE704480549054A064B70470000F3
:10025000F54200088901000850060020500C0020DB
:10026000500800205008002053EA020C00F069807A
:100270002DE9F04B4FF00006002B1FBFB3FA83F5BA
:1002800003FA05F424FA05F65E4012BF1643B2FAEB
:1002900082F502FA05F4C5F120051EBF22FA05FC1D
:1002A00044EA0C04203556EA044C4FEA144418BFC3
:1002B000641C4FF000084FF00009904271EB030CF2
:1002C00039D3002919BFB1FA81F701FA07F6B0FA5C
:1002D00080F700FA07F6C7F120071EBF20FA07FCD7
:1002E00046EA0C062037B6FBF4FCA7EB0507103FE7
:1002F00007F01F0BCBF120060CFA0BFB2CFA06F6CD
:1003000044BFB3460026202FA4BF5E464FF0000B2B
:100310005BEA060C08BF4FF0010B19EB0B09ABFBB6
:10032000027C48EB0608C01B06FB02CC0BFB03CC8F
:1003300071EB0C01C1E70B46024641464846BDE859
:10034000F08B13B54FF000004FF00001AFF30080C9
:10035000BDE81C40704710B5203AC0F00B80B1E8F2
:100360001850203AA0E81850B1E81850A0E81850EA
:10037000BFF4F5AF5FEA027C24BFB1E81850A0E8F3
:10038000185044BF18C918C0BDE810405FEA827C0D
:1003900024BF51F8043B40F8043B08BF7047D20724
:1003A00028BF31F8023B48BF11F8012B28BF20F8C5
:1003B000023B48BF00F8012B70474FF0000200B528
:1003C000134694469646203922BFA0E80C50A0E878
:1003D0000C50B1F12001BFF4F7AF090728BFA0E826
:1003E0000C5048BF0CC05DF804EB890028BF40F8F2
:1003F000042B08BF704748BF20F8022B11F0804F34
:1004000018BF00F8012B704770477047704710B550
:1004100000F008F8006810BD10B5044600F002F8BE
:10042000046010BD00487047F00500200048704788
:10043000F00500207546FFF7F9FFAE460500694656
:10044000534620F00700854618B020B5FFF7FAFEA6
:10045000BDE820404FF000064FF000074FF00008C5
:100460004FF0000B21F00701AC46ACE8C009ACE846
:10047000C009ACE8C009ACE8C0098D46704710B5AA
:100480000446AFF300802046BDE81040FFF7C5BE2C
:1004900001491820ABBEFEE72600020070470000AD
:1004A000464910B54A6822F440324A604A684368B7
:1004B0001A434A6001684A6822F480724A600168FF
:1004C0004A68036942EA03224A6001684A6822F0E6
:1004D00040724A6001684A6883681A434A6001684A
:1004E0008A6822F400628A6001688A68C3681A43D5
:1004F0008A60816A6FF07062D14201688A6822F076
:1005000070628A6001688A680CD0836A1A438A60C4
:1005100001688A6822F040528A6001688A68C36A6A
:100520001A4301E022F040528A6001688A6822F092
:1005300002028A6001688A68037E42EA43028A6096
:1005400090F82010002901684A680FD042F4006238
:100550004A6001684A6822F460424A6001684A6859
:10056000174C436A04EB43331A4301E022F4006260
:100570004A600168CA6A22F47002CA620168CA6AE3
:10058000838B104C04EB03531A43CA6201688A68D8
:1005900022F400728A6001688A6890F8303042EA7A
:1005A00043228A6001688A6822F480628A60016856
:1005B0008A68406942EA8020886010BD00230140BB
:1005C00000E0FFFF0000F0FF0E48002180EC030A6E
:1005D0009FED0D0ADFED0D0A80ED030AB1EE080A6A
:1005E00080ED040AC0ED050AC0ED060AC0ED070A59
:1005F000C0E90A113030B3EE040A80ED080AC0EDFC
:10060000090A70479001002000247449000000008E
:100610000E48002180EC030A9FED0D0ADFED0D0A64
:1006200080ED030AB1EE080A80ED040AC0ED050A68
:10063000C0ED060AC0ED070AC0E90A11B3EE040ACC
:1006400080ED080AC0ED090A70470000C0010020D3
:100650000024744900000000064800219FED060AAE
:10066000C0E9001180ED020A9FED040A80ED030A43
:1006700070470000F0010020000000000AD7A33BF3
:10068000064800219FED060AC0E9001180ED020A2C
:100690009FED040A80ED030A70470000000200206D
:1006A000000000000AD7A33B0E48002180EC030A9B
:1006B0009FED0D0ADFED0D0A80ED030AB1EE040A8D
:1006C00080ED040AC0ED050AC0ED060AC0ED070A78
:1006D000C0E90A11B3EE040A80ED080AC0ED090A68
:1006E0007047000010010020002474490000000041
:1006F0000E48002180EC030A9FED0D0ADFED0D0A84
:1007000080ED030AB1EE040A80ED040AC0ED050A8B
:10071000C0ED060AC0ED070AC0E90A11B3EE040AEB
:1007200080ED080AC0ED090A704700004001002072
:100730000024744900000000FEE70000B5EEC00A86
:1007400010B5F1EE10FA2DED028B03D080EE801A79
:10075000F0EE410ADFED0C1A80EE211A9FED0B0A34
:1007600060EE801A9FED0A0AC1EE800A31EE200A7F
:1007700030EEC18A02F0E2FEB0EE480ABDEC028B18
:10078000BDE8104003F09AB80AD7233D02746D41CA
:100790000AD7A33E014800F087BA000048030020B2
:1007A000014800F081BA000008040020014800F070
:1007B0007BBA0000A8030020014800F075BA0000D1
:1007C0006804002001681823CAB2103AB2FBF3F2A1
:1007D000054B6FF30901032A9B5CC36500D9091D12
:1007E00081650846704700005E67000810B5014645
:1007F00000208B698A6A4FF0C07453B1B3F5005F73
:1008000015D072B1012A0CD0022A0AD0032A09D1CC
:1008100004E01AB1012A06D0022A03D1C96AC9012B
:1008200000D5012010BDC96AA142FAD010BD002A2E
:10083000F7D0012AF2D0022AF3D0032AF3D010BD58
:1008400030B50468256825F4802525600468636058
:100850008368402B036803D099600068C26030BD94
:100860009A600068C16030BD704772B6FEE7000054
:1008700030220149FFF76FBD1001002030220149ED
:10088000FFF769BD4001002030220149FFF763BD39
:10089000B000002030220149FFF75DBDE0000020DC
:1008A00078B50024009490F83C20012A19D0012248
:1008B00080F83C200A6807230568092A13D9EE68E6
:1008C0000A3A02EB420293409E43EE600B788A683C
:1008D0000A3B03EB43039A400368DD682A43DA606E
:1008E00010E0022078BD2E6902EB420293409E4345
:1008F0002E610B788A6803EB43039A4003681D69F5
:100900002A431A614A681F23072A13D205686E6BAF
:10091000521E02EB820293409E436E630B790A885B
:100920005B1E92B203EB83039A4003685D6B2A431C
:100930005A6327E005680D2A12D22E6BD21F02EBF4
:10094000820293409E432E630B790A88DB1F92B28A
:1009500003EB83039A4003681D6B2A431A6311E07B
:10096000EE6A0D3A02EB820293409E43EE620B79EF
:100970000A880D3B92B203EB83039A400368DD6A59
:100980002A43DA62164B0568144A9D4206D10D6867
:10099000122D03D1556845F48005556005689D42C8
:1009A00018D10B68102B01D0112B13D1536843F4CD
:1009B00000035360096810290CD10A490A4A0968E2
:1009C000B1FBF2F101EB8101490000E0491E009109
:1009D0000029FBD180F83C40002078BD0023014075
:1009E00000200140AC00002040420F0070B5040020
:1009F0004FF0000503D0206C002610B107E0012065
:100A000070BD204600F01CF8666484F83C60206CE1
:100A1000C00610D4206C20F4885040F002002064FE
:100A20002046FFF73DFD6664206C20F0020040F098
:100A30000100206400E0012584F83C60284670BD78
:100A400070B586B0044614216846FFF7B6FC1D4910
:100A50001B4E256800231B4A143903241A48B5424B
:100A600011D1156845F480751560126802F4807222
:100A700005920A6842F001020A60096801F001016A
:100A80000591012113E0114EB54216D1156845F4C8
:100A900000751560126802F4007205920A6842F04F
:100AA00001020A60096801F0010105910221CDE906
:100AB00000140293694600F069FA06B070BD0000A8
:100AC0000020014044380240000002400021014063
:100AD0002DE9F041044600680D4681684FF000079B
:100AE00049050BD58068C00508D5206C40F0200072
:100AF000206484F83C700120BDE8F08100F044FBE4
:100B0000064613E0681C11D025B100F03DFB801BA8
:100B1000A8420BD920680068800707D4206C40F0F9
:100B20000400206484F83C700320E5E72068006836
:100B30008007E7D521686FF012000860206C40F450
:100B4000007020642068816811F0405F13D1217E1D
:100B500089B9C16A11F4700F02D0806840050AD4C7
:100B6000206C20F480702064206CC00403D4206CBE
:100B700040F0010020640020BEE7000018B500210D
:100B8000009190F83C20012A07D0012280F83C20F7
:100B900002689368DB0702D011E0022018BD936859
:100BA00043F0010393602E4A2E4B1268B2FBF3F21E
:100BB00002EB420200E0521E0092002AFBD10268C2
:100BC0009368DB0742D0036C40F20164A34343F413
:100BD0008073036453685B0505D5036C23F40053ED
:100BE00043F480530364036CDB0404D5436C23F0AB
:100BF0000603436400E0416480F83C101A496FF03A
:100C00002203136049680068CA06184906D0884262
:100C100024D1816811F0405F13D01FE08842F8D0E2
:100C2000134A904203D1D1F80423D206F1D0114ADD
:100C3000904213D1D1F8041301F01F011029E8D319
:100C40000CE0816841F08041816007E0016C41F077
:100C500010010164416C41F001014164002018BDA4
:100C6000AC00002040420F00002301400020014062
:100C7000002101400022014090F83510022903D0E4
:100C80008021416501207047052180F835100068FA
:100C9000016821F00101016000207047406D70473C
:100CA00090F83500704700002DE9F84304464FF0F6
:100CB0000009CDF8009063484FF41651A56D006807
:100CC000B0FBF1F72E6894F85C10082000FA01F1EF
:100CD00031420FD021680A6852070BD50A6822F00A
:100CE00004020A6094F85C108840A860606D40F0CF
:100CF0000100606594F85C104FF0010808FA01F0FB
:100D0000304208D021684969090604D5A860606DA1
:100D100040F00200606594F85C1004208840304286
:100D200008D021680968890704D5A860606D40F083
:100D30000400606594F85C1010208840304218D0A0
:100D400021680968090714D5A8602068016849036B
:100D500004D50068000308D5A16C07E00168C90547
:100D600003D4016821F008010160216C09B120461B
:100D7000884794F85C1020208840304231D02168A8
:100D80000968C9062DD5A86094F8350005282068A3
:100D9000016806D0490347D5006800031DD4616C83
:100DA0001CE021F0160101602068416921F08001FA
:100DB0004161206C08B9A06C20B12068016821F065
:100DC0000801016094F85C103F208840A86084F816
:100DD000358084F83490216D1FE0E16B09B1204625
:100DE0008847606D00282BD0606DC00714D00520A7
:100DF00084F835002068016821F001010160009845
:100E0000401C0090B84203D820680068C007F6D1A3
:100E100084F8358084F83490E16C002910D001B05A
:100E20002046BDE8F04308470168C905D5D40168EC
:100E300021F01001016084F8358084F83490CCE70B
:100E4000BDE8F883AC0000202DE9F041044600F035
:100E50009BF906465CB1022084F83500002584F831
:100E600034502068016821F0010101600DE001208B
:100E7000BDE8F08100F088F9801B052805D9202005
:100E80006065032084F83500F2E720680068C00739
:100E9000F0D12268116820480140D4E901031843C9
:100EA000D4E903363343184363691843A3691843ED
:100EB000E3691843236A18430843616A042903D18C
:100EC000D4E90B1319430843106020684069666A2F
:100ED00020F0070130460E43012704280CD1A06AF8
:100EE0000643E06A40B12046FFF780FC20B1402075
:100EF000606584F83570BAE7206846612046FFF7E0
:100F000061FC94F85C203F2191408160656584F824
:100F100035700020ACE700003F8010F02DE9F04173
:100F20000446866D90F83400002501280DD001207C
:100F300084F8340094F835700020012F07D084F82D
:100F4000340002252846BDE8F0810220FBE7022795
:100F500084F8357060652046FFF772FC94F85C10E9
:100F60003F208840B0602068016841F016010160B0
:100F7000206C20B12068016841F008010160206800
:100F8000016841F001010160DCE700002DE9F84F44
:100F9000DFF8BCA10022012503264FF00F090AF15A
:100FA000040BAAF1040E00BF0B6805FA02F42340FB
:100FB000A34270D10F7907F00307012F01D0022F50
:100FC00016D187684FEA420806FA08FC27EA0C07A0
:100FD000D1F80CC00CFA08FC4CEA070CC0F808C0A9
:100FE0004768A7430C79C4F3001494403C43446021
:100FF0000C79E443A4070AD0C4684FEA420C06FA0D
:101000000CF7BC438F6807FA0CF72743C7600C79CD
:1010100004F00304022C12D1D40800EB840CDCF899
:1010200020405707FF0E09FA07F824EA0804D1F810
:10103000108008FA07F848EA0408CCF82080046811
:101040004FEA420C06FA0CF7BC430F7907F003078E
:1010500007FA0CF7274307604C6814F4403F70D040
:101060003C4C276847F480472760246822F0030738
:1010700004F480440094384C07EB040CDCF8084876
:1010800097074FEA177809FA08F7BC43334FB8427D
:1010900002D1002724E054E0314FB84201D10127AA
:1010A0001EE0304FB84201D1022719E02E4FB8425E
:1010B00001D1032714E02D4FB84201D104270FE0DE
:1010C0002B4FB84201D105270AE02A4FB84201D17F
:1010D000062705E0284FB84201D1072700E008277E
:1010E00007FA08F72743CCF80878DAF800405746A3
:1010F000D1F804C09C435FEACC2C00D51C433C6073
:10110000DBF800405F46D1F804C09C435FEA8C2CBA
:1011100000D51C433C60DEF800407746D1F804C09F
:101120009C435FEA8C3C00D51C433C60084F083F61
:101130003C68D1F804C09C435FEACC3C00D51C431A
:101140003C60521C102AFFF42FAFBDE8F88F00005E
:10115000083C014044380240003001400000024099
:101160000004024000080240000C0240001002404F
:101170000014024000180240001C02400AB18161C4
:1011800070470904FBE700000148806870470000D1
:10119000A0000020704770472DE9F0410168044627
:1011A0004A694E6890F83E000025D743FA0506D4F8
:1011B000F243D20503D46FF4807201254A61B90568
:1011C00008D4F143C90505D422686FF4007145F0D5
:1011D00002055161790525D4F143C90522D4638DF7
:1011E00094F83D10226B202808D13BB9212910D05A
:1011F00029290ED0282901D1212A0AD022686FF48A
:101200008061516145F00405102806D0402804D0C3
:1012100008E0204602F05AF804E02068016841F432
:1012200000710160380508D4F043C00505D4216879
:101230006FF4006045F008054861002D07D0206C70
:10124000284320642046BDE8F04101F0D1BCBDE850
:10125000F0812DE9F047026800215368C66A90F8D2
:101260003E4090F83D50102C12D0402C10D0046C11
:10127000002C7DD05469E443A6077AD4DE43B6053A
:1012800077D4036C03B19169BDE8F04701F0FABF70
:10129000976951694FF42A0CC9435FEAC1784FF04E
:1012A0002A4904D066452AD04E4528D010E0DE43B6
:1012B000B6050DD4C16A614501D1012103E0C16ABF
:1012C000494501D10821C162BDE8F04701F044BFA2
:1012D0000E0716D4DE43B60513D4416CC9B21161B2
:1012E000416B09B1C96B29B9816B002907D0C96B62
:1012F000002904D00068416841F400614160BDE804
:10130000F0878E0706D4DE43B60503D4BDE8F04768
:1013100001F096BEFE43526876074FEA02521DD492
:10132000002AECDB0A0608D4DA43520505D4490743
:1013300005D5BDE8F04701F027BE4907DFD4D94302
:101340008905DCD4212D05D0402CD8D1BDE8F0474B
:1013500001F048BFBDE8F04701F0D4BD002ACEDB64
:101360004A060BD4DA43520508D4490708D501E0F0
:101370000DE00EE0BDE8F04701F050BD4907BED4D6
:10138000D9438905BBD4BDE8F04701F0DDBC9169C4
:1013900070E7E10606D4D943890503D4BDE8F047D8
:1013A00001F0D6BF2821212D27D0292D25D0650673
:1013B00055D4DD436D0552D4640752D590F83D30C5
:1013C000448D002C9BD01269446A2270426A521CE0
:1013D0004262428D521E4285428D002A8FD12A2BB5
:1013E0008DD10268536823F4806353602222026324
:1013F00080F83D1000F06EFB81E7250623D4DD4325
:101400006D0520D4640720D590F83D30448D002C24
:10141000F2D0446A24781461426A521C4262428DBE
:10142000521E4285428D002AE6D1292BE4D1026862
:10143000536823F4806353602122026380F83D10D7
:1014400000F049FB5BE76107D6D4D9438905D3D4C3
:10145000418D0029D0D0416A097811610AE0610705
:10146000CAD4D9438905C7D4418D0029C4D0116994
:10147000426A1170416A491C4162418D491E418591
:101480003DE7704770B5040025D094F83D00002575
:1014900020B984F83C50204600F040FA242084F81B
:1014A0003D002068016821F00101016020680168A9
:1014B00041F4004101602068016821F400410160AD
:1014C00000F072FC4D4A6168914201D84C4900E03D
:1014D0004C49884201D2012070BD4B492368B0FBC2
:1014E000F1F15E6826F03F060E435E60636893424A
:1014F00006D94FF4967359434FF47A73B1FBF3F165
:101500002368491C1E6A26F03F0631431962616850
:10151000914210D84900401EB0FBF1F2521CC2F3B8
:101520000B02042A01D2042022E0B0FBF1F0401C9F
:10153000C0F30B001CE0A268F2B301EBC10303EBA4
:101540000116431EB3FBF6F35B1C43F480431B05FB
:1015500049D092B301EBC10202EB0111401EB0FB76
:10156000F1F0401CC0F30B0040F4804040F4004018
:101570002168CA694CF6FF739A431043C861D4E9E5
:10158000071001432068026822F0C0021143016085
:10159000D4E9030101432068826848F2FF339A438B
:1015A00011438160D4E9050108432168CA6822F02B
:1015B000FF021043C86001E00EE016E020680168F9
:1015C00041F0010101602564202084F83D0025637D
:1015D00084F83E50002070BD01EB4106431EB3FB72
:1015E000F6F35B1CB3E70120C2E701EB4101401EAB
:1015F000B0FBF1F0401CC0F30B00B7E7A086010080
:1016000080841E0000093D0040420F00704700002A
:10161000054B04220549984200D1CA60044B984208
:1016200000D10A6170470000A002002000000020E5
:10163000F4020020054B02220549984200D1CA60FD
:10164000044B984200D10A6170470000A0020020BC
:1016500000000020F4020020F8B5002504460095A3
:1016600090F83D00202871D14F4846F2A816006836
:10167000B0FBF6F000EBC00606EB00102026009051
:101680000098401E009010D020688069C0438007F9
:10169000F6D594F83C00012858D0012084F83C008D
:1016A00020680768FF070AD00DE044F8305F6673D2
:1016B000A573206940F02000206125733BE0076896
:1016C00047F0010707602068076827F40067076094
:1016D000222084F83D00102084F83E0025646262D8
:1016E0006385608D20853148E0626164208D70B330
:1016F000A06B10B32E49C163A16B2E48C864A06BC8
:101700000564A06B4564A06B8564A06B05652168CA
:10171000238D1031626AA06BFFF700FCC0B184F822
:101720003D6084F83E5054F8400F40F0100000BF78
:1017300044F8040925700120F8BD84F83D6084F860
:101740003E5054F8400F40F08000F1E72AE016E0E8
:101750002068016841F4806101602068016841F4FB
:101760008071016084F83C502068416841F4407108
:1017700041602068416841F40061416010E084F8F4
:101780003C502068416841F4E06141602068016894
:1017900041F4806101602068016841F4807101605A
:1017A0000020F8BD0220F8BDAC0000200000FFFFC3
:1017B000E52A0008A52A0008F8B50025044600958A
:1017C00090F83D00202871D14F4846F2A8160068D5
:1017D000B0FBF6F000EBC00606EB001020260090F0
:1017E0000098401E009010D020688069C043800798
:1017F000F6D594F83C00012858D0012084F83C002C
:1018000020680768FF070AD00DE044F8305F667370
:10181000A573206940F02000206125733BE0076834
:1018200047F0010707602068076827F40067076032
:10183000212084F83D00102084F83E002564626277
:101840006385608D20853148E0626164208D70B3CE
:10185000606B10B32E49C163616B2E48C864606B26
:101860000564606B4564606B8564606B0565226828
:10187000238D1032616A606BFFF750FBC0B184F8B2
:101880003D6084F83E5054F8400F40F0100000BF17
:1018900044F8040925700120F8BD84F83D6084F8FF
:1018A0003E5054F8400F40F08000F1E72AE016E087
:1018B00084F83C502068416841F4407141602068E0
:1018C000416841F4006141602068016841F4806131
:1018D00001602068016841F48071016010E02068B7
:1018E000016841F4806101602068016841F4807101
:1018F000016084F83C502068416841F4E061416037
:101900000020F8BD0220F8BDAC0000200000FFFF61
:10191000E52A0008A52A0008704770472DE9F0471E
:1019200086B0044614216846FEF747FD6348634EBF
:10193000DFF88481D4F800C0122103220423DFF8E9
:1019400080A11036002507154FF04009C44554D139
:10195000D0F800C04CF0020CC0F800C0006800F0E5
:1019600002000590C0208DE8230069465046CDE96D
:101970000323FFF70BFB306840F400103060306841
:10198000514E00F4001005904E4830604FF0007842
:10199000C6E90185C6E903577561B561F561356230
:1019A00030467562FFF750FA08B1FEF75EFFA66396
:1019B000B463454E434860369030C6E903577561BD
:1019C000B561F5613562756286E801033046FFF75F
:1019D0003BFA08B1FEF749FF6663002211461F205B
:1019E000B46300F015F91F2000F004F90022012172
:1019F000202000F00DF9202059E0DFF8D080C44508
:101A000057D1D0F800C04CF0020CC0F800C00068FC
:101A100000F0020005904FF440608DE82300694615
:101A20005046CDE90323FFF7B1FA306840F4800057
:101A300030603068244E00F4800005902148C036A4
:101A4000303030604FF06068C6E90185C6E9035761
:101A50007561B561F561356230467562FFF7F4F97D
:101A600008B1FEF702FFA663B463194E1548C6E934
:101A700003577561B561F5613562A830756286E816
:101A800001033046FFF7E0F908B1FEF7EEFE6663AA
:101A9000002211462120B46300F0BAF8212000F0A2
:101AA000A9F800220121222000F0B2F8222000F043
:101AB000A1F806B0BDE8F08700540040303802407D
:101AC000000402401060024048030020005800401B
:101AD000680400207047704770B5040011D0216879
:101AE0004CF6CC400860216845F255500860D4E9B6
:101AF000000141602168A0688860FFF745FB05464A
:101B00000DE0012070BD00BFFFF73EFB401B3128F8
:101B100005D92068C068800701D0032070BD206807
:101B2000C0688007F0D121684AF6AA20086000202A
:101B300070BD00684AF6AA210160002070470000CD
:101B4000024881680278114481607047A00000203B
:101B50000B4810B5016841F400710160016841F45F
:101B600080610160016841F480710160032000F030
:101B70006FF80F2000F006F800F024F8002010BDE8
:101B8000003C024070B50D4D04464FF47A71287840
:101B9000B1FBF0F00A490968B1FBF0F000F00CFB72
:101BA00048B9102C07D200222146501E00F030F810
:101BB00000206C6070BD012070BD0000A0000020FE
:101BC000AC0000200A4808B5016841F4804101607A
:101BD000006800F4804000900548001F016841F053
:101BE00080510160006800F08050009008BD000046
:101BF00044380240002809DB00F01F020121914017
:101C00004009800000F1E020C0F80011704700009A
:101C1000F0B40E4B1B680C46C3F30223C3F1070557
:101C2000042D00D90425191D072901D2002300E045
:101C3000DB1E012606FA05F1491E214099409E400F
:101C4000761E16403143F0BC02F0DCBD0CED00E026
:101C5000064900F0070208684FF6FF03184040EA03
:101C60000220034A10430860704700000CED00E0BA
:101C70000000FA052DE9F0470E46050065D0DFF8B3
:101C80001481D8F80000F7B200F00700B04207D284
:101C900088F80070D8F8000000F00700B04254D176
:101CA00028683D4C810712D5400703D5206840F4D1
:101CB000E05020602878000703D5206840F4604099
:101CC00020602068A96820F0F00008432060287890
:101CD000C0072DD0304968680839012812D0022881
:101CE00013D0032811D00968890700292DDA21684B
:101CF00021F0030101432160FFF746FA814641F2DA
:101D0000883A0EE009688903EFE709688901ECE782
:101D1000FFF73AFAA0EB0901514502D90320BDE8CB
:101D2000F0872068696800F00C00B0EB810FEFD1FC
:101D3000D8F80010404601F00701B14207D90770FA
:101D4000006800F00700B04201D00120E7E72878E2
:101D5000400705D52068E96820F4E050084320607A
:101D60002878000706D52068296920F4604040EAF9
:101D7000C100206000F038F82168084AC1F303115F
:101D8000515CC8400649086006480068FFF7FAFE43
:101D90000020C4E7003C02400838024066670008A3
:101DA000AC000020A4000020044805490068096830
:101DB000044AC1F38221515CC8407047AC00002046
:101DC0000838024076670008044805490068096839
:101DD000044AC1F34231515CC8407047AC00002056
:101DE0000838024076670008154810B5006810F002
:101DF0000C02144813D01449042A0FD0082A0ED11B
:101E00000F4C241F2268236802F03F025B0207D5B3
:101E10002068C0F38810A0FB010106E0084610BD51
:101E20002168C1F38811A1FB00010023FEF71CFA11
:101E30002168C1F30141491C4900B0FBF1F010BD1C
:101E4000083802400024F40040787D012DE9F84F65
:101E500004006ED02078DFF84C93C007A9F1040588
:101E60004AD009F104000168C1F38101012908D0B9
:101E70000068C0F3810002280AD1D9F800004002AE
:101E800006D52868800337D560680028E1D033E0A4
:101E90006068B0F5803F10D0B0F5A02F286810D052
:101EA00020F480302860286820F480202860606852
:101EB000A8B1FFF769F906460DE0286840F48030C4
:101EC000F4E740F480202860F7E700BFFFF75CF9F3
:101ED000801B642873D828688003F7D50CE0FFF7CF
:101EE00053F9064605E000BFFFF74EF9801B642852
:101EF000F0D828688003F7D42078DFF8AC82800718
:101F00004FF0000A3ED5A748001D016811F00C0FE4
:101F100008D00068C0F3810002280BD1D9F8000076
:101F2000400207D42868800716D5E068012800D150
:101F300012E033E1E068B8B10120C8F80000FFF713
:101F400023F9064605E000BFFFF71EF9801B0228B3
:101F5000C0D828688007F7D52868216920F0F800E4
:101F600040EAC10028600DE0C8F800A0FFF70CF9B6
:101F7000064604E0FFF708F9801B02281FD82868EE
:101F80008007F7D42078000722D5864F87486169FB
:101F9000703771B101210160FFF7F6F8064604E0E1
:101FA000FFF7F2F8801B022809D838688007F7D5B8
:101FB0000EE0C0F800A0FFF7E7F8064605E082E073
:101FC000FFF7E2F8801B02287DD838688007F7D435
:101FD0002078400768D5DFF8CCB100270BF13C0B27
:101FE000DBF80000C0000BD4DBF8001041F080519A
:101FF000CBF80010DBF80000012700F080500090C3
:102000006B4E3068C00510D4306840F4807030608A
:10201000FFF7BAF8009005E0FFF7B6F80099401A0C
:10202000022850D83068C005F6D55E4EA0686C36E0
:1020300001280FD00528306810D020F00100306052
:10204000306820F004003060A068B8B1FFF79CF859
:1020500000900FE0306840F00100F4E740F0040029
:102060003060F7E7FFF790F80099411A41F28830A5
:10207000814266D830688007F4D50EE0FFF784F817
:10208000009007E0FFF780F80099411A41F288308C
:10209000814256D830688007F4D42FB1DBF80010A5
:1020A00021F08051CBF80010A069C8B33D49091D4B
:1020B0000968C1F3810102294AD00228504607D09D
:1020C000C8F8600000E03CE0FFF75EF804463BE043
:1020D0004746C8F86000FFF757F8064605E000BF1E
:1020E000FFF752F8801B02282BD828688001F7D40C
:1020F000D4E907010843A16A2E4A490802EB0141CD
:10210000626A41EA8211084394F82C1040EA0161A6
:10211000C9F8001001203866FFF736F8044606E0DB
:102120003EE000BFFFF730F8001B022809D82868FE
:102130008001F7D534E000BFFFF726F8001B022826
:1021400002D90320BDE8F88F28688001F4D427E085
:102150000128F7D0D9F80000E26900F4800191422B
:102160001CD1226A00F03F01914217D147F6C0719D
:10217000626A0140B1EB821F10D1A26A4FF0FF33B7
:1021800000F4403103EB5202B1EB024F06D194F858
:102190002C1000F07060B0EB016F01D00120D1E78E
:1021A0000020CFE70438024000004742800E47423B
:1021B000007000400000FFFF10B5401EB0F1807FAE
:1021C00001D3012010BD4FF0E02460610F216017A2
:1021D00002F018FB0020A06107202061002010BD44
:1021E0007047704770B590F83C20012A32D0012426
:1021F00080F83C40022280F83D2003685A689D68C0
:1022000022F070060A6832435A60134B02689A4201
:1022100014D0B2F1804F11D0104B9A420ED0104B17
:102220009A420BD00F4B9A4208D00F4B9A4205D0DE
:102230000E4B9A4202D00E4B9A4204D1496825F0C7
:1022400080031943916080F83D40002180F83C10E4
:10225000084670BD022070BD00000140000400402F
:1022600000080040000C0040000401400040014014
:102270000018004010B5040003D094F83D0010B1E0
:1022800007E0012010BD002084F83C00204600F04B
:102290001FF8022084F83D00211D206802F038F864
:1022A000012084F8460084F83E0084F83F0084F85A
:1022B000400084F8410084F8420084F8430084F828
:1022C000440084F8450084F83D00002010BD000063
:1022D00008B501681648B1F1804F0BD0154A9142FC
:1022E00010D1016841F002010160006800F00200B5
:1022F000009008BD016841F001010160006800F034
:102300000100F5E70C4A9142F3D1016841F0080160
:1023100001600068002200F00800009002213220D5
:10232000FFF776FCBDE808403220FFF763BC0000F1
:102330004038024000040040000C004090F83D107E
:10234000012901D001207047022180F83D10016869
:10235000CA6842F00102CA6000681149884214D07C
:10236000B0F1804F11D00F4988420ED00E498842FB
:102370000BD00E49884208D00D49884205D00D493E
:10238000884202D00C49884204D1816801F00701DB
:10239000062903D0016841F0010101600020704767
:1023A000000001400004004000080040000C004014
:1023B00000040140004001400018004070B5044690
:1023C00090F83C000025012817D0012684F83C60D5
:1023D000022084F83D002068826822F0770222F40F
:1023E0007F4282600868502838D00DDC20284FD00A
:1023F00005DC90B3102811D14AE0022070BD3028CE
:1024000046D040280AD13BE060282FD070280DD05C
:10241000B0F5805F03D0B0F5005F12D0012584F8DD
:102420003D60002084F83C00284670BDCB68D1E9AF
:102430000121206801F0DDFF2068816841F077010B
:1024400009E0CB68D1E90121206801F0D2FF2068C2
:10245000816841F480418160E1E719E0CA68496818
:10246000206802F09BF85021206806E0CA6849689D
:10247000206802F0A4F86021206801F0C4FFCEE7D4
:10248000CA684968206802F089F840212068F4E7AA
:10249000226801461046F0E7704770B504460068B0
:1024A00001694FF00005C943890715D4C168C943C4
:1024B000890711D4E91E0161012020772068806915
:1024C0008007204602D0FFF7E7FF04E000F000F9A4
:1024D000204600F092F9257720680169C943490731
:1024E00017D4C168C943490713D46FF004010161CF
:1024F000022020772068806910F4407F204602D0B7
:10250000FFF7CAFF04E000F0E3F8204600F075F999
:10251000257720680169C943090716D4C168C943F2
:10252000090712D46FF008010161042020772068A8
:10253000C0698007204602D0FFF7AEFF04E000F03C
:10254000C7F8204600F059F9257720680169C9438A
:10255000C90617D4C168C943C90613D46FF0100166
:102560000161082020772068C06910F4407F204670
:1025700002D0FFF791FF04E000F0AAF8204600F037
:102580003CF9257720680169C943C90708D1C168AA
:10259000C943C90704D1891E0161204600F092F9A0
:1025A00020680169C943090609D4C168C9430906FD
:1025B00005D46FF0800101612046FFF711FE20680D
:1025C0000169C943490609D4C168C943490605D40C
:1025D0006FF040010161204600F084F92068016934
:1025E000C94389060BD4C168C943890607D46FF073
:1025F000200101612046BDE87040FFF7F2BD70BDCB
:102600002DE9F04387B0044614216846FDF7D5FE56
:10261000226800252A49022401272A480326DFF8D8
:10262000A890B2F1804F25D0284B9A421FD10A685A
:1026300042F001020A600A6802F0010205920A688B
:1026400042F002020A60096801F002010591C0210E
:102650008DE8720069460494FEF798FC01AA009781
:1026600082E87000694604944846FEF78FFC07B084
:10267000BDE8F0830A6842F001020A600A6802F0CD
:10268000010205920A6842F002020A600968804667
:1026900001F00201059104218DE83200CDE90357D4
:1026A0006946FEF773FC20208DE8F100694640463C
:1026B000FEF76CFC08208DE8F1006946D4E70000C5
:1026C0003038024000000240000402400004004094
:1026D000704770B5044690F83C0000260D4601286E
:1026E0000FD0012084F83C006AB1042A1DD0082ACA
:1026F0002FD00C2A3FD00126002084F83C00304621
:1027000070BD022070BD206801F086FE20688169DE
:1027100041F0080181612068816921F00401816133
:10272000206881692A69114311E0206801F0A4FE44
:102730002068816941F4006181612068816921F428
:1027400080618161206881692A6941EA0221816191
:10275000D2E7206801F0C6FE2068C16941F0080197
:10276000C1612068C16921F00401C1612068C169AB
:102770002A69114311E0206801F0E8FE2068C16970
:1027800041F40061C1612068C16921F48061C161C7
:102790002068C1692A6941EA0221C161ACE710B52C
:1027A000040003D094F83D0010B107E0012010BDF3
:1027B000002084F83C00204600F01EF8022084F837
:1027C0003D00211D206801F0A3FD012084F8460092
:1027D00084F83E0084F83F0084F8400084F841000B
:1027E00084F8420084F8430084F8440084F84500EB
:1027F00084F83D00002010BD7047704710B50446B6
:10280000022249B104290ED0082913D094F84100BE
:10281000012816D0012010BD94F83E000128F9D1FE
:1028200084F83E200FE094F83F000128F2D184F8AC
:102830003F2008E094F840000128EBD184F84020C4
:1028400001E084F841200122206801F0C5FD16490D
:102850002068164A884201D0904203D1436C43F469
:10286000004343642068884213D0B0F1804F10D0F9
:102870000F4988420DD00F4988420AD00E4988423C
:1028800007D0904205D00D49884202D00C498842B9
:1028900004D1816801F00701062903D0016841F0E5
:1028A00001010160002010BD000001400004014052
:1028B0000004004000080040000C004000400140BF
:1028C000001800400549884207D105480168426860
:1028D000491C42F10002016042607047640500201B
:1028E00098000020704770B5040004D094F83D00B3
:1028F000002510B106E0012070BD84F83C50204650
:1029000000F022F8242084F83D002068C16821F4FA
:102910000051C160204601F065FE2068016921F484
:10292000904101612068416921F02A0141612068DC
:10293000C16841F40051C1602564202084F83D0045
:1029400084F83E00002070BD10B586B00446142106
:102950006846FDF732FD14492068884221D11348AA
:102960000021026842F010020260006800F01000CE
:1029700005900E481438026842F0010202600068B7
:1029800000F0010005904FF4C06000900220CDE9F6
:102990000101032003900720049069460448FEF7D4
:1029A000F5FA06B010BD00000010014044380240A6
:1029B00000000240FEE700000148FEF7EDBB00000A
:1029C000A00200200148FEF744BC0000A002002045
:1029D0000148FEF7E1BB0000F40200200148FEF7C9
:1029E00038BC0000F402002038B5806B002190F85C
:1029F0003D202B4B46F2A8141B68B3FBF4F3C3EB4A
:102A0000C30303EB830300933BB15B1E0093036896
:102A10001B689B0505D5009BF6E7036C43F020037C
:102A20000364436B03B1D963836B03B1D963036858
:102A30001C6824F480641C604185436B03B11965F4
:102A4000836B03B1196503681C6824F001041C60E2
:102A500090F83D402023602C0BD0282434EA020259
:102A60000FD080F83D3080F83E1000BFFEF709FD22
:102A700038BD80F83D3080F83E100164FEF78AFBD7
:102A800038BD0268136843F00103136002681368DD
:102A900043F480631360016380F83D40E6E7000083
:102AA000AC00002070B5846B0025616B01B1CD6373
:102AB000A16B01B1CD63FEF7F1F8022811D02068B7
:102AC000016821F4806101606585202084F83D0063
:102AD00084F83E50206C40F0100020642046FEF741
:102AE000D0FC70BD2DE9F041846B94F83D2094F842
:102AF0003E50E16A2068436823F440734360636B8F
:102B0000002003B1D863A36B03B1D863212333EA58
:102B100002074FF022060CD036EA020701D1202D21
:102B200007D094F83E20002A21D0628D012A20D0BF
:102B300024E021684D6825F400654D6060852820FB
:102B4000292A02D02A2A07D00CE0236384F83D000A
:102B50002046FEF7C0FF05E0266384F83D002046CE
:102B6000FEF7B8FF2068416841F440714160BDE85C
:102B7000F0812268136823F480631360226853682D
:102B800023F44073536011F5803F06D0082904D028
:102B9000B1F12A4F01D0202904D121680A6842F4FA
:102BA00000720A6021684A6822F480524A602168F3
:102BB0004A6822F400624A606085216C19B120469F
:102BC000FEF75FFCD3E7202184F83D1094F83E1017
:102BD00084F83E00402905D0122020632046FEF7ED
:102BE00017FDC4E720632046FEF796FEBFE700000E
:102BF00070B5044690F83D0094F83E10102901D0BD
:102C0000402906D1222804D121680A6822F40062F2
:102C10000A60282131EA00024FF000054FF020063B
:102C200026D021684968090505D4602803D084F8B6
:102C30003D6084F83E50256320684168090537D51A
:102C4000416821F400614160606B90F835203C4997
:102C5000012A11D00165606BFEF70EF838B32068C9
:102C6000016821F00101016084F83D60606B1CE0A7
:102C7000256384F83D10DFE7A06B0165A06BFDF7CD
:102C8000FBFFA0B120684169C943490605D400692A
:102C9000616A0870606A401C60622068016821F007
:102CA0000101016084F83D60A06B016D884710E070
:102CB00094F83D10602910D04169C943490605D4F4
:102CC0000069616A0870606A401C60622046FEF715
:102CD000D8FB206CC1071CD115E084F83D60256449
:102CE0004169C943490605D40069616A0870606A90
:102CF000401C60622068016821F0010101602046EB
:102D0000FEF748FAE5E7810703D4410701D400073D
:102D100004D52068416821F4E061416094F83D00E9
:102D2000216C49070BD5282809D10648E0622563A4
:102D300084F83D6084F83E502046FEF767FC70BD85
:102D4000E92900080000FFFF10B5C26A438D016841
:102D5000042B06D0438D032B08D0438D022B1DD0AE
:102D600012E04A6822F480624A600CE04B6823F467
:102D700080634B60042A06D0022A04D001680A68E6
:102D800022F480620A6001680969426A1170416A2E
:102D9000491C4162418D491E418510BD012A30D038
:102DA000102A2ED0042A30D0022A2ED00A6842F4EB
:102DB00000720A6001680969426A1170416A491C1F
:102DC0004162428D521E4285026812690A70416A50
:102DD000491C4162418D491E418501684A6822F4BF
:102DE00040724A60202180F83D1090F83E2000217A
:102DF000402A80F83E100CD012210163FEF708FC37
:102E000010BD0A6822F48062D3E70A6842F4806247
:102E1000CFE70163FEF780FD10BD000038B590F8E4
:102E20003D1022290FD1418D03290DD9016809696F
:102E3000426A1170416A491C4162418D491E4185B7
:102E4000418D032906D038BDC26A022A02D0012969
:102E500006D029B10068416821F48061416038BD25
:102E6000274946F2A81300220968B1FBF3F101EBF0
:102E70008101009101682023009C641E009422D0EF
:102E80000C68A405F8D40C6824F480640C60016814
:102E90004C6824F4E0644C6001680969446A21705C
:102EA000416A491C4162418D491E418580F83D308F
:102EB00090F83E1080F83E2040291DD01221016379
:102EC000FEF7A6FB38BD046C44F0200404644C6893
:102ED00024F4E0644C6001680969446A2170416A25
:102EE000491C4162418D491E418580F83D3080F882
:102EF0003E20FEF7C6FA38BD0263FEF70DFD38BD71
:102F0000AC00002010B5C26A90F83D1021290BD109
:102F1000418D51B1416A026809781161416A491CC9
:102F20004162418D491E418510BD20230021082AA0
:102F300013D0202A11D012F5803F0ED002685468B9
:102F400024F4E06454601122026380F83E1080F89B
:102F50003D3000BFFEF76EFB10BD0268546824F4DC
:102F6000E06454600268146844F4007414600163FF
:102F700080F83D3090F83E2080F83E10402AE9D19C
:102F8000FEF7CBFC10BD000010B590F83D1090F896
:102F90003E30C26A048DB4B1212903D0402B11D137
:102FA00022290FD1418DE1B390F83E10402942D043
:102FB000416A026809781161416A491C4162418D88
:102FC000491E418510BD2129E8D120230021082A6E
:102FD00013D0202A11D012F5803F0ED00268546819
:102FE00024F4E06454601122026380F83E1080F8FB
:102FF0003D3000BFFEF71EFB10BD0268546824F48C
:10300000E06454600268146844F40074146001635E
:1030100080F83D3090F83E2080F83E10402AE9D1FB
:1030200000E002E0FEF779FC10BD0068416821F481
:103030008061416010BDBDE8104000F0D3B80000D1
:1030400078B590F83E50C26A036B90F83D6000245A
:103050000168222E7AD1066D0EB9402D76D0056D0D
:103060001DB90569B5F5404F09D0458D05B3468DAD
:10307000384D012E0ED0438D022B3AD05DE04A69C7
:103080008A6900920A6842F480720A60016D491CE4
:10309000016578BDAA4213D10A6822F480620A60F1
:1030A00001684A68120503D50A6822F4806216E0B6
:1030B0004A698A6900920A6842F400720A6039E03B
:1030C000082A10D0202A0ED0122B0AD0042A03D0AE
:1030D000022A01D0102AE7D10A6842F480620A600D
:1030E00024E0012AE0D00A6822F480620A600168C4
:1030F000DEE7042A21D0022A1FD0102A1DD00B6837
:1031000023F480630B6001680B6843F400630B6079
:1031100001684B681B0509D5AA4212D0012A10D0BC
:10312000082A0ED0102A0CD0202A0AD001684A6939
:1031300089690091046578BD08E00B6843F48063F9
:10314000E5E74A6842F480524A60EFE748698869D7
:103150000090F0E70000FFFF90F83E10402910D0EB
:103160000169B1F5804F19D0016DA9B3016D012935
:1031700010D1416C5FF0F10201F4407142EAD111CB
:1031800006E0016D0029416C05D0C9B241F0010192
:1031900000680161704701F0FE01F9E790F83D1009
:1031A0002129416C09D0C9B241F0010102681161C5
:1031B000416B29B1C96B49B902E001F0FE01F5E7A5
:1031C000816B0029E6D0C96B0029E3D00068416813
:1031D00041F4006141607047FFE7416CF02201F467
:1031E0004071CBE710B590F83D10026D22B3026D2F
:1031F000012A2FD0026D022A1DD122292FD0428D03
:103200000AB1212933D0428D002A14D1212912D1AB
:1032100001684A6822F4E0624A6001680A6842F480
:1032200000720A6000210163202280F83D2080F8AE
:103230003E10FEF772FB10BDC16C0129816C02D0FB
:10324000C1F3072108E00268C9B21161016D891C50
:10325000016510BD816CC9B20268116104E00168AA
:103260000A6842F480720A60016D491CF0E7416A05
:10327000026809781161416A491C4162418D491E09
:10328000418510BD38B50C4690F83D200021282519
:10329000954302680B4605D051699169009180F809
:1032A0003C3038BD556825F480655560E2435407CD
:1032B00000D50121120601D5828900E0028B80F839
:1032C0003C3092B2FDF767FF38BD00002DE9F041B8
:1032D00090F83D40C26A002320261C4F01686FF41D
:1032E0008065082A01D0202A01D1282C04D0212C65
:1032F00016D04D61BDE8F081C7624A6822F4E062F1
:103300004A6001684D6101680A6822F480620A60BF
:10331000036380F83D6080F83E30FEF777F9E9E717
:10332000C7622122026380F83D6080F83E304A681F
:1033300022F4E0624A6001684D6101680A6822F483
:1033400080620A60FEF7C7FBD4E700000000FFFFC1
:10335000F8B590F83D6004460068416821F4E061EA
:1033600041602068002541690091016841F0010138
:1033700001602068016821F4806101602068416873
:10338000090520D5474F222E48D02A2E46D0616B02
:10339000096849686185618D19B1216C41F00401AA
:1033A0002164416821F400614160606BFDF778FCA5
:1033B000012808D0606B0765606BFDF75DFC10B1FC
:1033C000606B016D8847608D08B320684169C9430F
:1033D000490708D40069616A0870606A401C60622D
:1033E000608D401E608520684169C943490608D444
:1033F0000069616A0870606A401C6062608D401EEE
:103400006085608D18B1206C40F004002064206C51
:1034100000B32046BDE8F840FFF7EABBA16B09689E
:1034200049686185618D19B1216C41F00401216405
:10343000416821F400614160A06BFDF731FC012877
:10344000C1D0A06B0765A06BFDF716FC0028BAD0B1
:10345000A06BB6E72A2E06D12563282084F83D000C
:103460002046FEF737FB94F83D10202028290DD088
:10347000216B222901D0222E07D1256384F83D003B
:1034800084F83E502046FEF725FBF8BD0649E16270
:10349000256384F83D0084F83E502046FEF7B6F8D8
:1034A000F8BD0000E92900080000FFFF70B50546DF
:1034B0002DED028BB0EE408A02F06CF9D5E90023C5
:1034C00006460C46801A61EB030103F0C8F800EED3
:1034D000100ADFED170A20EE200AB5EEC00AF1EE61
:1034E00010FA02D29FED130A0DE010EE100A1249F5
:1034F000884208DD85ED028AC5E90064B0EE480A1D
:10350000BDEC028B70BD95ED031A31EE000AC1EEE1
:10351000000A95ED020AB7EE001A20EE200A71EEBD
:10352000600A00EE880A85ED020AC5E90064E7E753
:10353000ACC5A7366F12833A9A99993E00B52DED26
:10354000028B99B0B0EE408A6846FDF791F90CA85D
:10355000FDF79AF901F012FF38EE400A684600F0D4
:10356000B1FDB0EE408A02F0BFF978EE408A0CA8B7
:10357000B0EE680A00F0A6FD02F05EF900F03AFE37
:10358000B0EE408AB0EE680A054800F09BFDF0EE10
:10359000480A00F08FF819B0BDEC028B00BD0000A6
:1035A000900100204048DFED3F2AB5EEC00AD0ED83
:1035B000021AF1EE10FA02D2B0EE620A06E0B4EEA0
:1035C000E10AF1EE10FA01DDB0EE610AF5EEC00A93
:1035D000F1EE10FA02D2F0EE620A06E0F4EEE10A31
:1035E000F1EE10FA01DDF0EE610AB5EEC01AF1EE6F
:1035F00010FA02D2B0EE621A06E0B4EEE11AF1EE71
:1036000010FA01DDB0EE611A80EE212A4FF07E51F2
:10361000B5EEC02AF1EE10FA02D2B0EE622A05E051
:1036200012EE100A884201DDB7EE002A80EEA10AF0
:10363000B5EEC00AF1EE10FA02D2B0EE620A05E071
:1036400010EE100A884201DDB7EE000AC1EE210A31
:10365000F5EEC00AF1EE10FA02D2F0EE620A05E0D1
:1036600010EE900A884201DDF7EE000A9FED0F1A76
:103670000F4862EE011A0268FCEEE11A11EE901A90
:10368000516320EE010A0268BCEEC00A10EE101A67
:10369000916320EE810A0068BCEEC00A10EE101A99
:1036A000C163704700000000280000200000524362
:1036B000D404002070B5B5EEC00A2DED0C8BF1EEF0
:1036C00010FA03D29FED721A70EE810AB0EEC09A22
:1036D0009FED700A30EE800A01F02EFEF0EE408A77
:1036E0009FED6D8AC8EE880A10EE900A02F08CFFFA
:1036F00041EC100B01F098F89FED68BB51EC100BFA
:1037000053EC1B2B02F00CFA02F016FC654D04463C
:10371000A86802F079FF41EC1A0B19EE100A02F0CA
:1037200073FF00EE904AB0EE680A41EC1D0BF8EE14
:10373000E00A10EE880A10EE100A02F065FF41EC74
:10374000100B01F081F99FED58CB51EC100B53ECAD
:103750001C2B02F087FC53EC1D2B02F083FC53EC76
:103760001A2B02F091FA02F0A9F908EE100AA868E3
:1037700002F04AFF41EC1A0B19EE100A02F044FF66
:1037800041EC190B204602F006FC53EC1B2B02F017
:1037900051FE9FED471B53EC112B02F063FC41ECF3
:1037A0001B0B18EE900A02F02FFF53EC1B2B02F0BC
:1037B00041FE41EC100B01F047F953EC1C2B51EC8E
:1037C000100B02F04FFC53EC192B02F04BFC53ECA6
:1037D0001A2B02F059FA02F071F9B7EE000A02EE64
:1037E000100A30EE480AB6EE001A072C70EE421AA4
:1037F0003AD2DFE804F039040B161D27300038EE0A
:10380000020AF0EE420A01EE810A05E0B0EE480A33
:1038100078EE020A01EE810A21EE812A41EE810A48
:1038200028E078EE020A21EE810A41EE810A06E0E4
:10383000F0EE480A21EE810A41EE810A08E001EE2D
:10384000812A17E0B0EE420A61EE810A01EE810A98
:1038500038EE022AF3E738EE020A61EE810AB0EE92
:10386000482A01EE810AEAE79FED130AF0EE400ACA
:10387000B0EE402A95ED021ABDEC0C8B20EE010A49
:1038800060EE810A22EE011ABDE87040FFF78ABEA1
:10389000DB0F4940DB0FC93F920A863F0000000062
:1038A0000000F03F28000020000000E07AB6FB3F57
:1038B0000000004052C1F03F0000000000B52DEDB7
:1038C000028B99B0B0EE408A6846FCF7D7FF0CA88F
:1038D000FCF7E0FF01F0E0FD38EE400A684600F03A
:1038E000F1FBB0EE408A02F0AFF878EE408A0CA807
:1038F000B0EE680A00F0E6FB02F04EF800F092FC31
:10390000B0EE408AB0EE680A054800F0DBFBF0EE4E
:10391000480A00F08FF819B0BDEC028B00BD000022
:10392000C00100204048DFED3F2AB5EEC00AD0EDCF
:10393000021AF1EE10FA02D2B0EE620A06E0B4EE1C
:10394000E10AF1EE10FA01DDB0EE610AF5EEC00A0F
:10395000F1EE10FA02D2F0EE620A06E0F4EEE10AAD
:10396000F1EE10FA01DDF0EE610AB5EEC01AF1EEEB
:1039700010FA02D2B0EE621A06E0B4EEE11AF1EEED
:1039800010FA01DDB0EE611A80EE212A4FF07E516F
:10399000B5EEC02AF1EE10FA02D2B0EE622A05E0CE
:1039A00012EE100A884201DDB7EE002A80EEA10A6D
:1039B000B5EEC00AF1EE10FA02D2B0EE620A05E0EE
:1039C00010EE100A884201DDB7EE000AC1EE210AAE
:1039D000F5EEC00AF1EE10FA02D2F0EE620A05E04E
:1039E00010EE900A884201DDF7EE000A9FED0F1AF3
:1039F0000F4862EE011A0268FCEEE11A11EE901A0D
:103A0000516320EE010A0268BCEEC00A10EE101AE3
:103A1000916320EE810A0068BCEEC00A10EE101A15
:103A2000C1637047000000002800002000005243DE
:103A30001C05002070B5B5EEC00A2DED0C8BF1EE23
:103A400010FA03D29FED721A70EE810AB0EEC09A9E
:103A50009FED700A30EE800A01F06EFCF0EE408AB5
:103A60009FED6D8AC8EE880A10EE900A02F0CCFD38
:103A700041EC100B00F0D8FE9FED68BB51EC100B31
:103A800053EC1B2B02F04CF802F056FA654D04463D
:103A9000A86802F0B9FD41EC1A0B19EE100A02F009
:103AA000B3FD00EE904AB0EE680A41EC1D0BF8EE53
:103AB000E00A10EE880A10EE100A02F0A5FD41ECB3
:103AC000100B00F0C1FF9FED58CB51EC100B53ECE5
:103AD0001C2B02F0C7FA53EC1D2B02F0C3FA53EC77
:103AE0001A2B02F0D1F801F0E9FF08EE100AA868DD
:103AF00002F08AFD41EC1A0B19EE100A02F084FD67
:103B000041EC190B204602F046FA53EC1B2B02F055
:103B100091FC9FED471B53EC112B02F0A3FA41ECF3
:103B20001B0B18EE900A02F06FFD53EC1B2B02F0FA
:103B300081FC41EC100B00F087FF53EC1C2B51EC87
:103B4000100B02F08FFA53EC192B02F08BFA53ECA6
:103B50001A2B02F099F801F0B1FFB7EE000A02EE5D
:103B6000100A30EE480AB6EE001A072C70EE421A20
:103B70003AD2DFE804F039040B161D27300038EE86
:103B8000020AF0EE420A01EE810A05E0B0EE480AB0
:103B900078EE020A01EE810A21EE812A41EE810AC5
:103BA00028E078EE020A21EE810A41EE810A06E061
:103BB000F0EE480A21EE810A41EE810A08E001EEAA
:103BC000812A17E0B0EE420A61EE810A01EE810A15
:103BD00038EE022AF3E738EE020A61EE810AB0EE0F
:103BE000482A01EE810AEAE79FED130AF0EE400A47
:103BF000B0EE402A95ED021ABDEC0C8B20EE010AC6
:103C000060EE810A22EE011ABDE87040FFF78ABE1D
:103C1000DB0F4940DB0FC93F920A863F00000000DE
:103C20000000F03F28000020000000E07AB6FB3FD3
:103C30000000004052C1F03F000000007FB50024AA
:103C400015480094019402941249039401604FF4C2
:103C50008031C0E901140461047680F820400F49E6
:103C6000C0E90A140125C561C46080F8304045618F
:103C7000FCF7BCFE08B1FCF7F8FDCDE9004569464C
:103C800005480294FCF70CFE002801D0FCF7EDFD7E
:103C90007FBD000000200140100200200100000F45
:103CA0007FB50024154800940194029412490394AE
:103CB00001604FF48031C0E901140461047680F89A
:103CC00020400F49C0E90A140125C561C46080F88D
:103CD00030404561FCF78AFE08B1FCF7C6FD00954F
:103CE000CDE9015469460548FCF7DAFD002801D00A
:103CF000FCF7BBFD7FBD0000002101405802002001
:103D00000100000F154808B5016841F40011016079
:103D10000068002200F40010009011460B20FDF70F
:103D200077FF0B20FDF766FF002211460D20FDF7FF
:103D30006FFF0D20FDF75EFF002211461120FDF7F9
:103D400067FF1120FDF756FF002211462F20FDF7D7
:103D50005FFFBDE808402F20FDF74CBF3038024020
:103D60002DE9F04186B014216846FCF726FB224875
:103D70000025016841F004010160016801F00401BF
:103D80000591016841F080010160016801F0800146
:103D90000591016841F001010160016801F0010134
:103DA0000591016841F0020101600068134F00F0C5
:103DB00002000590012210213846FDF7DFF9DFF8F7
:103DC0004080012202214046FDF7D8F9102001264B
:103DD0000224CDE90006CDE9025469463846FDF7D4
:103DE000D5F8CDE90046CDE9025469464046FDF7D5
:103DF000CDF806B0BDE8F081303802400000024046
:103E0000000402400D4810B50B4901600C494160A7
:103E100000214FF480428160C0E903124161816159
:103E2000C1610162FDF72EFB002803D0BDE8104000
:103E3000FCF71BBD10BD000000540040A002002094
:103E4000801A06000D4810B50B4901600C4941600D
:103E500000214FF480428160C0E903124161816119
:103E6000C1610162FDF70EFB002803D0BDE81040E0
:103E7000FCF7FBBC10BD000000580040F40200201D
:103E8000801A0600094810B5074901600221416007
:103E9000F9218160FDF720FE002803D0BDE8104025
:103EA000FCF7E3BC10BD000000300040C804002057
:103EB00010B58EB000240794089409940A940B94CA
:103EC0001C2168460C94FCF778FA26484FF0804194
:103ED00001600321416020218160D121C0E90314E8
:103EE0008461FEF7C7F908B1FCF7BFFC4FF48050BE
:103EF000079007A91B48FEF761FA08B1FCF7B5FC6B
:103F00001848FEF74CFC08B1FCF7AFFC0B940BA96A
:103F100014480C94FEF766F908B1FCF7A6FC602083
:103F2000CDE900040294002269460E480494FEF78D
:103F3000D0FB08B1FCF799FC042269460948FEF75A
:103F4000C8FB08B1FCF791FC082269460548FEF75A
:103F5000C0FB08B1FCF789FC0248FEF751FB0EB02C
:103F600010BD0000D404002010B58EB000240794CA
:103F7000089409940A940B941C2168460C94FCF74D
:103F80001CFA2648244901600321416020218160F8
:103F9000D121C0E903148461FEF76CF908B1FCF784
:103FA00064FC4FF48050079007A91C48FEF706FAFE
:103FB00008B1FCF75AFC1948FEF7F1FB08B1FCF711
:103FC00054FC0B940BA915480C94FEF70BF908B19F
:103FD000FCF74BFC6020CDE9000402940022694606
:103FE0000E480494FEF775FB08B1FCF73EFC042272
:103FF00069460A48FEF76DFB08B1FCF736FC08225B
:1040000069460648FEF765FB08B1FCF72EFC03483D
:10401000FEF7F6FA0EB010BD000400401C050020AB
:1040200010B586B0002417480094019402940394BC
:1040300004941349059401605321C0E9011404213B
:10404000C0E9031480218161FEF714F908B1FCF77F
:104050000CFC4FF48050009069460A48FEF7AEF918
:1040600008B1FCF702FC049404A906480594FEF785
:10407000B9F8002801D0FCF7F8FB06B010BD00002D
:10408000000C0040640500200C4810B50A4901608E
:104090004FF4E1314160002181600C22C160C0E930
:1040A00004128161C161FEF71EFC002803D0BDE847
:1040B0001040FCF7DABB10BD00100140AC05002039
:1040C000FEE7FEE770B504462DED028BB0EE408AA8
:1040D00001F060FB0646D4E90A020D46301A61EB96
:1040E000020102F0BCFA00EE100ADFED400AF6EE23
:1040F000001AD4ED052A20EE201AD4ED010A94ED21
:10410000000A60EE810A60EE083A94ED070A60EE5C
:10411000A10A72EE881A00EEA10AD4ED041AF1EE9B
:10412000610AF4EEC00AF1EE10FA02DDB0EE600AA8
:1041300006E0F4EEC01AF1EE10FA01D2B0EE610A18
:1041400094ED023AB0EE402A94ED080A78EE622A25
:1041500023EE003A63EE222A30EE013A94ED090A8A
:1041600040EE012A82EE830A73EE822A84ED090A68
:1041700032EE800AF4EEC00AF1EE10FA02DDB0EE83
:10418000600A06E0F4EEC01AF1EE10FA01D2B0EEC9
:10419000610AD4ED031AF5EEC01AF1EE10FA1ADD39
:1041A000D4ED060A30EE603AC3EE012AF4EEE21ACC
:1041B000F1EE10FA04D2B0EE600A01EE810A0AE0D4
:1041C000B1EE613AB4EEE23AF1EE10FA03DDB0EE90
:1041D000600A01EEC10A84ED072A84ED060A84ED27
:1041E000058AC4E90A65BDEC028B70BDACC5A73673
:1041F0007047000010B501F0C1F80948D0E9092165
:10420000514300EE901AB8EEE01AD0ED000ABDE876
:10421000104051EE000AB0EE600A01F08DB80000C7
:104220002800002010B501F037F90948D0E90B212A
:10423000514300EE901AB8EEE01AD0ED010ABDE845
:10424000104051EE000AB0EE600A01F075B80000AF
:10425000280000207047FDF773BC000030B593B014
:1042600030216846FCF7A9F814210CA8FCF7A5F842
:104270001E480024016841F080510160006800F090
:10428000805011901A48016841F480410160006833
:10429000102100F4804011900A2000900120CDE907
:1042A00003010225CDE905050820CDE90740A82036
:1042B000CDE9090504200B906846FDF7C7FD08B15C
:1042C00072B6FEE70F20CDE90C054FF4A050CDE902
:1042D0000E404FF48050109005210CA8FDF7CAFC49
:1042E000002801D072B6FEE713B030BD403802405E
:1042F000007000400248016841F47001016070479D
:1043000088ED00E00148FEF7C8B800006405002011
:10431000F0B50268254C264D264E274F274B4FF00F
:10432000804CA04209D0604507D0A84205D0B042D9
:1043300003D0B84201D0984204D122F0700E4A68EE
:1043400042EA0E02A0421BD0604519D0A84217D005
:10435000B04215D0B84213D0984211D0184DA8429F
:104360000ED0184DA8420BD0174DA84208D0174DBB
:10437000A84205D0164DA84202D0164DA84203D13E
:1043800022F44075CA682A434D6922F080022A430C
:1043900002608A68C2620A688262A04201D09842C2
:1043A00001D10969016301214161F0BD00000140B3
:1043B0000004004000080040000C004000040140E0
:1043C0000040014000440140004801400018004006
:1043D000001C00400020004010B501F01F03012127
:1043E000046A99408C430462016A9A401143016255
:1043F00010BD10B5846842EA032224F47F440A43C6
:104400002243826010BD826822F070020A4342F0AB
:104410000701816070470000F0B5026A22F00102D6
:104420000262036A42688469124E24F073050C68C4
:104430002C4323F002058B682B430D4DA84201D07D
:10444000B04205D123F00807CB683B4323F00403B7
:10445000A84201D0B04205D14D6922F44072154303
:104460008A692A4342608461496841630362F0BDFE
:104470000000014000040140F0B5026A22F0100281
:104480000262026A436884690D6824F4E64444EADF
:1044900005248D6822F0200242EA05120F4D104ECD
:1044A000A84201D0B04206D1CF6822F0800242EA91
:1044B000071222F04002A84201D0B04207D14D6954
:1044C00023F4406343EA85038D6943EA850343602F
:1044D0008461496881630262F0BD00000000014010
:1044E00000040140F0B5026A22F480720262026A9E
:1044F0004368C46922F4007224F073050C68124EFC
:104500002C438D6842EA05220E4DA84201D0B042EC
:1045100006D1CF6822F4006242EA072222F48062C8
:10452000A84201D0B04207D14D6923F4405343EA79
:1045300005138D6943EA05134360C4614968C1638B
:104540000262F0BD000001400004014030B5026A83
:1045500022F480520262046A4268C3690D6823F43F
:10456000E64343EA05238D6824F4005444EA053405
:10457000084DA84202D0084DA84204D14D6922F44A
:10458000804242EA85124260C36149680164046264
:1045900030BD0000000001400004014010B5036A76
:1045A000046A24F001040462846924F0F00444EAFB
:1045B000021423F00A020A438461026210BD10B59E
:1045C000036A23F0100303628369046A23F47043CF
:1045D00043EA023224F0A00343EA0111826101623E
:1045E00010BD000070B5044600680169E26821F45E
:1045F0004051114301612169A068E2690843616982
:10460000114308432168CA6849F20C639A43024384
:10461000CA6020684169A26921F440711143416177
:1046200031492068884202D03049884202D1FDF7E2
:10463000CBFB01E0FDF7B8FBE269002319216425FB
:104640003226B2F5004F626828D0A0FB0101930F1B
:104650009200FBF709FE0146B0FBF5F06FF018027F
:10466000504301EB800006EB0010B0FBF5F000F0CA
:10467000F002B1FBF5F002EB0012B1FBF5F06FF0C8
:104680001803584301EB800006EB0010B0FBF5F077
:1046900000F00F0021681044886070BDA0FB01018C
:1046A00092185B41FBF7E0FD0146B0FBF5F002011B
:1046B000B1FBF5F06FF01803584301EB800006EBF7
:1046C000C000B0FBF5F000F0F80002EB4002B1FBD7
:1046D000F5F0584301EB800006EBC000B0FBF5F0AD
:1046E00000F00700D6E70000001001400014014070
:1046F000FEE70000064800219FED060AC0E9001110
:1047000080ED020A9FED040A80ED030A7047000065
:1047100070010020000000000AD7A33B06480021DA
:104720009FED060AC0E9001180ED020A9FED040A20
:1047300080ED030A704700008001002000000000A7
:104740000AD7A33B0E48002180EC030A9FED0D0A17
:10475000DFED0D0A80ED030AB1EE080A80ED040AD0
:10476000C0ED050AC0ED060AC0ED070AC0E90A114E
:10477000B3EE040A80ED080AC0ED090A7047000094
:10478000B000002000247449000000000E48002101
:1047900080EC030A9FED0D0ADFED0D0A80ED030AA0
:1047A000B1EE080A80ED040AC0ED050AC0ED060A64
:1047B000C0ED070AC0E90A11B3EE040A80ED080A49
:1047C000C0ED090A70470000E00000200024744991
:1047D0000000000003B401984100009850EAC12095
:1047E00018BF04204A0D18BF40F0010040F2FF72CC
:1047F000B2EB515F08BF40F00200012808BF05205E
:1048000002B070470907090E002804DB00F1E02020
:1048100080F80014704700F00F0000F1E02080F8ED
:10482000141D7047000000002DE9F0412DED020B32
:104830009FED3D0B2DED028B9FED3D8BDDE902548D
:10484000C4F30A50A0F2FF36142E37DA002E18DA1D
:1048500053EC102B9DED020B51EC100B01F060F9A5
:1048600053EC182B01F0A4FD57D2002CA4BF002458
:10487000254652DA24F00040284318BF2E4C4CD075
:104880001AE02E4820FA06F704EA070028431FD052
:1048900053EC102B9DED020B51EC100B01F040F985
:1048A00053EC182B01F084FD37D2002C03DA4FF4BF
:1048B0008010F0400444BC4300252EE0332E07DC7A
:1048C000A6F114004FF0FF3121FA00F73D4206D166
:1048D0009DED020BBDEC028B02B0BDE8F08153EC04
:1048E000102B9DED020B51EC100B01F097FD53ECDA
:1048F000182B01F05DFD10D2002C0DDA142E08BF2C
:10490000641C09D0C6F13400012101FA00F02844EA
:10491000A84238BF641C0546BD43CDE902549DED55
:10492000020BD7E7000000009C7500883CE4377E4E
:1049300000000000000000000000F0BFFFFF0F00BB
:1049400010B52DED040B86B09DED060B10EE100A90
:1049500010EE901A8DED000B002818BF01200843BF
:1049600020F00040C0F17F6000F1E040C00F21D195
:104970009DED080B10EE101A10EE900A8DED000B55
:10498000002918BF0121084320F00040C0F17F60DA
:1049900000F1E040C00F0DD129490798B1EB400F5D
:1049A00004BF0698002842D00998400004BF089828
:1049B00000283CD09DED080B53EC102B9DED060B11
:1049C00051EC100B01F046FCCDE902019DED020B0C
:1049D00040F2FF7110EE900A8DED000B31EA10509D
:1049E00021D00798039900F0004001F0004188426F
:1049F00019D09DED080B8DED040B9DED020B8DED97
:104A0000000B10EE900A059961F31E0005909DEDD4
:104A1000041B9DED020B51EC110B53EC102B01F01C
:104A2000FDFCCDE902019DED020B0AB010BD012095
:104A3000FBF7F2FC0AB0BDE8104000F05DBC0000DE
:104A40000000E0FF0000000010B52F499FED2C1B77
:104A50002DED020B84B0059820F000408842DCBFA9
:104A600000209DED040B32DD2849884209D10498CD
:104A700040B94FF00100FBF7CFFC00F03DFC06B061
:104A800010BD05DB9DED040B00F02AFC06B010BD47
:104A900068469DED040B00F03BF810F0030011D0C8
:104AA000012818D09DED021B9DED000B02281AD0A5
:104AB00000F04AFA51EC100B00F0F4FF06B041ECA4
:104AC000100B10BD9DED021B9DED000B012000F0B1
:104AD0006FFB06B010BD9DED021B9DED000B00F0BD
:104AE00033FA06B010BD012000F062FB51EC100B50
:104AF00000F0D8FF06B041EC100B10BD0000000024
:104B00000000000000000000FB21E93F0000F07FF2
:104B10002DE9F14F04462DED020B2DED088B8AB0E7
:104B20009FEDE70B80ED020B139EE74826F0004552
:104B300085420ADC9DED120B002084ED000B0AB0CB
:104B4000BDEC088B03B0BDE8F08FE0489FEDE0AB13
:104B50009FEDE1BBA84247DDE14F9FEDE39B9FED59
:104B6000E48B9DED120B53EC1A2B51EC100B002E25
:104B70001CDD01F05FFC41EC100BBD4208D053EC92
:104B80001B2B51EC100B01F055FCC4E900010BE0AC
:104B900053EC192B51EC100B01F04CFC53EC182B7F
:104BA00001F048FCC4E900010120C8E700F0B8FFAB
:104BB00041EC100BBD4208D053EC1B2B51EC100BF9
:104BC00000F0AEFFC4E900010BE053EC192B51ECEF
:104BD000100B00F0A5FF53EC182B00F0A1FFC4E967
:104BE00000014FF0FF30AAE7C348A84279DB9DEDF2
:104BF000120B51EC100B00F0DFFC41EC180B9FED99
:104C0000C00B53EC102B01F02DFA9FEDBF1B53ECA2
:104C1000112B00F085FF01F08FF9074601F0BBF979
:104C200041EC190B53EC1A2B01F01CFA53EC182B26
:104C300001F0F4FB41EC180B53EC1B2B51EC190B5E
:104C400001F010FADFF8C8A241EC100B4FEA15583A
:104C50000125FA4453EC102B51EC180B01F0EAFB40
:104C6000032DC4E900013DD0C1F30A5005EB451105
:104C7000A8EB00001139814234DA0AEB051BB0EED3
:104C800048AA9BED000BF0EE68AA53EC102B51ECF8
:104C9000190B01F0E7F941EC1B0B51EC1A0B53EC2B
:104CA0001B2B01F0C7FB41EC180B51EC1A0B53EC1A
:104CB000182B01F0BFFB53EC1B2B01F0BBFB9BED52
:104CC000020B41EC1A0B53EC102B51EC190B01F0B9
:104CD000C9F953EC1A2B01F0ADFB41EC100B6D1C24
:104CE000B8E70EE0002EA8BF3846BFF628AF94ED17
:104CF000000B51EC100B00F0D5FEC4E90001784226
:104D00001DE7C6F3130040F4801EC6F30A50A0F25C
:104D1000F530471100F01F05C5F12000DDF848B05F
:104D200008900020069007900520EC467949002D58
:104D300007EB0002794408BF51F8221009D051F85E
:104D4000223001EB8201AB404A68089922FA01F156
:104D50001943A1FB0E26A1FB0B131A449A4234BF40
:104D60000123002303EB06080CEB8003D3E901A623
:104D70000E448E4234BF0121002192448A4411B175
:104D8000924502D903E0924501D2012100E00021C1
:104D9000C3E901A641444CF82010011EA0F1010016
:104DA000C4DC029800F10050850F0298DDE903672A
:104DB0008000DDF8148001F0EEF841EC1A0B30466B
:104DC00001F000F99FED541B53EC112B01F04AF94F
:104DD00041EC1B0B384601F0F5F89FED511B53ECED
:104DE000112B01F03FF941EC180B404601F0EAF8B5
:104DF0009FED4D1B53EC112B01F034F941EC190BD5
:104E000051EC180B53EC192B00F08AFE53EC1B2BC2
:104E100000F086FE53EC1A2B00F082FECDE908016B
:104E2000002008909DED080B53EC1A2B51EC100B51
:104E300001F000FB53EC1B2B01F0FCFA53EC182B98
:104E400001F0F8FA53EC192B01F0E8FA9FED381B4A
:104E500053EC112B01F006F99FED370B41EC180BC9
:104E600053EC102B9DED080B51EC100B01F0FAF8F0
:104E700053EC182B00F054FE9FED310B41EC180B56
:104E800053EC102B9DED080B51EC100B01F0EAF8E0
:104E900053EC182B00F044FE41EC100B139810F06B
:104EA000004F06D06D4251EC100B00F0FBFD41ECC1
:104EB000100B284684ED000B41E6000000000000C6
:104EC0000000000000000000FB21E93F7CD9024007
:104ED00000004054FB21F93F3163621A61B4D03DB8
:104EE000FB21F93F000000000000601A61B4D03DD2
:104EF0007370032E8A19A33BFB2139410000000087
:104F000083C8C96D305FE43F000000000000E03F4F
:104F10005A1B0000A81A0000000000000000103E0C
:104F2000000000000000103C000000000000103AEB
:104F3000182D4454FB21F93D3326A611460B113C94
:104F400000000054FB21F93D10B52DED040B2DEDB3
:104F5000088B82B0B0EE419AF0EE619A0B9820F087
:104F600000449FED4BABB4F1795F11DA9DED0A0B74
:104F700051EC100B00F0E0FF002801BFB0EE4A0A30
:104F8000F0EE6A0A02B0BDEC088B04BF04B010BD9D
:104F90009DED0A0B53EC102B51EC100B01F062F855
:104FA00041EC180B3C480621B0EE480AF0EE680AC6
:104FB000784400F081F853EC182B51EC100B01F001
:104FC00051F89DED0A0B41EC1B0B53EC192B51ECE6
:104FD000100B01F047F841EC190B53EC1B2B51EC73
:104FE000180B01F03FF853EC192B01F023FA9FED59
:104FF0002C0B41EC190B53EC102B51EC180B01F05E
:1050000031F841EC100B2848844210DA53EC192B8C
:1050100051EC100B01F00EFA53EC1A2B01F0FEF9D3
:1050200041EC100B02B0BDEC088B04B010BD1F4862
:10503000A042BCBF9FED1E1B8DED001B06DBA4F53F
:1050400000100190002000909DED001B51EC100B12
:1050500053EC112B01F0EEF99DED000B41EC180B18
:1050600053EC102B51EC1A0B01F0E4F941EC1A0B44
:1050700053EC192B51EC180B01F0DCF953EC1A2B03
:1050800001F0CCF941EC100BCCE70000000000006F
:10509000000000000000F03FCC17000000000000FE
:1050A000000000000000E03F3333D33F0000E93F41
:1050B000000000000000D23F70B504462DED028BC9
:1050C0004D1E00EBC500B0EE408AF0EE608A90ED18
:1050D000000B35F0060017D053EC182B51EC100BD9
:1050E00000F0C0FF41EC100B6D1E04EBC50090ED0D
:1050F000001B51EC100B53EC112B00F011FD41EC97
:10510000100B35F00600E7D1022D36D0042D1CD04F
:10511000062D1CBFBDEC028B70BD53EC182B51EC5F
:10512000100B00F09FFF94ED0A1B53EC112B00F0C5
:10513000F7FC53EC182B00F095FF94ED081B53EC93
:10514000112B00F0EDFC41EC100B53EC182B51EC43
:10515000100B00F087FF94ED061B53EC112B00F0B1
:10516000DFFC53EC182B00F07DFF94ED040B53ECA7
:10517000102B00F0D5FC41EC100B53EC182B51EC2C
:10518000100B00F06FFF94ED021B53EC112B00F09D
:10519000C7FC53EC182B00F065FF94ED001B53EC9B
:1051A000112B00F0BDFCBDEC028B41EC100B70BD6F
:1051B00031B504462DED040B2DED0A8BB0EE41BA4E
:1051C000F0EE61BA0B989DED0A0B20F00040B0F1B3
:1051D000795F0DDA51EC100BFFF7FCFA042808BFD9
:1051E00000F09AF89DED0A0BBDEC0A8B05B030BDBE
:1051F00053EC102B51EC100B00F034FF41EC180B6A
:105200009DED0A0B53EC182B51EC100B00F02AFF0C
:1052100041EC190B2C48B0EE480AF0EE680A052163
:105220007844FFF749FF9FED2ACBB0EE40AAF0EE9D
:1052300060AA9CB353EC1C2B51EC190B00F012FF2D
:1052400041EC1C0B53EC1A2B51EC190B00F00AFF2C
:105250009FED210B41EC190B53EC102B51EC1B0B68
:1052600000F000FF53EC192B01F0E4F853EC182B7D
:1052700000F0F8FE53EC1B2B01F0DCF853EC1C2B78
:1052800001F0D8F89DED0A1B53EC112B01F0C6F884
:10529000BDEC0A8B05B041EC100B30BDFFE753ECC1
:1052A0001A2B51EC180B00F0DDFE53EC1C2B00F018
:1052B00037FC53EC192B00F0D5FE9DED0A1B53EC87
:1052C000112B00F02DFCE3E7541600000000000055
:1052D000495555555555C5BF000000000000E03F39
:1052E00010B553EC102B51EC100B00F019FC41ECF5
:1052F000100B10BD000000009FED050B10B553EC26
:10530000102B51EC100B00F0BFFC41EC100B10BD4A
:1053100000000000000000009FED050B10B553ECED
:10532000102B51EC100B00F09DFE41EC100B10BD4A
:10533000000000000000001010B510EE100A01F08F
:1053400063F941EC100B9FED0A1BFFF7F9FA51ECE2
:10535000100B00F0B3FB00EE100AB5EEC00AF1EE40
:1053600010FA03DADFED040A30EE200A10BD000067
:1053700000000060FB211940DB0FC94010B500F0B0
:105380003FF800EE100A1948F8EE400A90ED050AC1
:1053900030EEC00AB5EEC00AF1EE10FA02DDB0EE52
:1053A000401A01E0B1EE401A11EE101A104A9FEDBA
:1053B000111A91420FDBB5EEC00AF1EE10FA02DDD0
:1053C0009FED0D0A01E0B0EE410AD0ED061A30EE75
:1053D000210A80ED060A9FED090AC0ED050A60EE7C
:1053E000800A90ED060A00EE810A10BD0000002040
:1053F000CDCC4C45DB0FC940DB0FC9C00000803964
:1054000010B5124CE1680020052914D2DFE801F044
:1054100003140B1416006C210C4A01230C48FCF7F2
:10542000CBF9012007E0094A0223921C6D210848AC
:10543000FCF712F90320E060E08810BD0349891CE5
:105440004A78097842EA0121E180F4E7000000206F
:10545000A002002010B50E4C9FED0C0A84ED060A48
:10546000FFF7CEFF00EE100A01230022B8EE400A3B
:105470006C21084884ED050AFCF79EF901230022FF
:10548000BDE810406D210348FCF796B9000000000C
:1054900000000020A002002010B500F03FF800EE50
:1054A000100A1948F8EE400A90ED070A30EEC00ADB
:1054B000B5EEC00AF1EE10FA02DDB0EE401A01E0DE
:1054C000B1EE401A11EE101A104A9FED111A9142D6
:1054D0000FDBB5EEC00AF1EE10FA02DD9FED0D0A0A
:1054E00001E0B0EE410AD0ED081A30EE210A80ED5D
:1054F000080A9FED090AC0ED070A60EE800A90EDE8
:10550000080A00EE810A10BD00000020CDCC4C45F9
:10551000DB0FC940DB0FC9C00000803910B5134C48
:1055200021690020052915D2DFE801F003150C15CB
:1055300017000E4A6C21521C01230D48FCF73CF960
:10554000012007E0094A0223121D6D210848FCF7DB
:1055500083F803202061208910BD0449091D4A7881
:10556000097842EA01212181F4E7000000000020CF
:10557000F402002010B50E4C9FED0C0A84ED080AD1
:10558000FFF7CCFF00EE100A01230022B8EE400A1C
:105590006C21084884ED070AFCF70EF9012300226C
:1055A000BDE810406D210348FCF706B9000000007B
:1055B00000000020F402002082B0CDE9000121F0BB
:1055C000004001909DED000B02B051EC100B7047B4
:1055D0002DED028BFCF7BCFAFEF740FEFEF7C0FB98
:1055E000FEF790FBFEF72AFBFEF70CFCFEF72AFC09
:1055F000FEF75EFCFEF714FDFEF746FDFEF750FBDE
:10560000FEF7B2FCFEF73EFC00215248FDF7F6F82B
:1056100004215048FDF7F2F808214E48FDF7EEF856
:1056200000214D48FDF7EAF804214B48FDF7E6F864
:1056300008214948FDF7E2F84848FCF77FFE484852
:10564000FBF79CFA4748FBF799FA4FF47A74214626
:105650004348FBF73DFA21464248FBF739FA9FEDF4
:10566000428AB0EE481ADFED410AB6EE000AFAF7B8
:10567000ABFFB0EE481A9FED3E8AB6EE000AF0EEA0
:10568000480AFAF7C5FFB0EE481AF7EE000AB3EE83
:10569000040AFFF757F8B0EE481AF7EE000AB3EE27
:1056A000040AFFF773F89FED338ADFED338AB2EE19
:1056B000041AF0EE480AB0EE680AFAF7F5FFB2EE07
:1056C000041AF0EE480AB0EE680AFBF711F8FFF78B
:1056D00011F8FFF723F8FAF7BFFFFAF7D1FFFFF74A
:1056E000B9FEFFF747FFFEF7CDFB0122102123484B
:1056F000FBF744FD012202212148FBF73FFD9FED0E
:10570000210A00F0C3F9B2EE090A00F0C5F9B1EEC2
:10571000040A00F0AFF9B1EE040A00F0B1F9B1EEFD
:10572000080A00F09BF9B1EE080A00F09DF9164C4A
:1057300022686168154B00209A1A884105D2F0EE64
:10574000480AB2EE040AFAF7F9FF1148FCF7F1F93A
:10575000EEE70000D40400201C05002064050020B2
:105760001002002058020020CDCCCC3DCDCC4C3FC7
:10577000CDCC4C3E000000000000C84200000240BA
:105780000004024000004E4198000020400D03003C
:10579000C80400200149D1E90001704798000020A9
:1057A00070B52DED028B00F09FF81F4CB0EE408AD3
:1057B00094ED020AD4ED010A38EE400A30EE800A78
:1057C00084ED010AFFF7E6FF0646D4E906020D461E
:1057D00050EA02011AD0301A65EB020100F03FFFD7
:1057E00000EE100ADFED110A114960EE200A10EEFA
:1057F000900A884213DB94ED011A81EE200ADFED56
:105800000D0A84EC020AC4E906650AE0C4E90665EB
:1058100084ED028A94ED000ABDEC028B70BD94ED1C
:10582000000A84ED028AF7E770000020ACC5A736B5
:1058300017B7D1370000000010B5FFF7B1FFBDE882
:1058400010400148FDF732BEF001002070B52DED8B
:10585000028BFFF793FD204CB0EE408A94ED050AD1
:10586000D4ED040A38EE400A30EE800A84ED040AD2
:10587000FFF790FF0646D4E90E020D4650EA0201FA
:105880001CD0301A65EB020100F0E9FE00EE100AB0
:10589000DFED120A124960EE200A10EE900A8842EB
:1058A00015DB94ED041A81EE200ADFED0E0A84ED7B
:1058B000030AC4ED040AC4E90E650AE0C4E90E65F2
:1058C00084ED058A94ED030ABDEC028B70BD94ED66
:1058D000030A84ED058AF7E728000020ACC5A73647
:1058E000ACC5A7360000000010B5FFF7AFFFBDE85C
:1058F00010400148FDF7DABD7001002070B52DEDB4
:10590000028B00F0A1F8204CB0EE408A94ED050A1D
:10591000D4ED040A38EE400A30EE800A84ED040A21
:10592000FFF738FF0646D4E908020D4650EA0201A7
:105930001CD0301A65EB020100F091FE00EE100A57
:10594000DFED120A124960EE200A10EE900A88423A
:1059500015DB94ED041A81EE200ADFED0E0A84EDCA
:10596000030AC4ED040AC4E908650AE0C4E908654D
:1059700084ED058A94ED030ABDEC028B70BD94EDB5
:10598000030A84ED058AF7E770000020ACC5A7364E
:1059900017B7D1370000000010B5FFF7AFFFBDE823
:1059A00010400148FDF782BD0002002070B52DEDCA
:1059B000028BFFF771FD204CB0EE408A94ED080A8F
:1059C000D4ED070A38EE400A30EE800A84ED070A6B
:1059D000FFF7E0FE0646D4E910020D4650EA020148
:1059E0001CD0301A65EB020100F039FE00EE100AFF
:1059F000DFED120A124960EE200A10EE900A88428A
:105A000015DB94ED071A81EE200ADFED0E0A84ED16
:105A1000060AC4ED070AC4E910650AE0C4E9106586
:105A200084ED088A94ED060ABDEC028B70BD94EDFE
:105A3000060A84ED088AF7E728000020ACC5A736DF
:105A4000ACC5A7360000000010B5FFF7AFFFBDE8FA
:105A500010400148FDF72ABD80010020014880ED7B
:105A6000040A704790010020014880ED040A704745
:105A7000C0010020014880ED040A7047B0000020FA
:105A8000014880ED040A7047E0000020014880EDE5
:105A9000040A704710010020014880ED040A704795
:105AA0004001002081F00041704780F000407047C5
:105AB00021F00041704720F00040704721F0004283
:105AC000A2F16052B2F5801F01F0004328BFD2F16D
:105AD0007F6C0BD95FEA001C43EAC20242EB5070B4
